:020000040800F2
:1000000028080020350200087129000895280008FA
:100010006D29000861150008912900080000000002
:100020000000000000000000000000007929000826
:100030006515000800000000752900087D290008EA
:100040004F0200084F0200084F0200084F0200084C
:100050004F0200084F0200084F0200084F0200083C
:100060004F0200084F0200084F0200084F0200082C
:100070004F0200084F0200084F0200084F0200081C
:100080004F0200084F0200084F0200084F0200080C
:100090004F0200084F0200084F0200084F020008FC
:1000A0004F0200084F0200084F0200084F020008EC
:1000B0004F0200084F0200084F0200084F020008DC
:1000C0004F0200084F0200084F0200084F020008CC
:1000D0004F0200084F0200084F0200084F020008BC
:1000E0004F0200084F0200084F02000800F002F81B
:1000F00000F090F80AA090E8000C82448344AAF132
:100100000107DA4501D100F085F8AFF2090EBAE82F
:100110000F0013F0010F18BFFB1A43F0010318473B
:10012000403C0000603C0000103A24BF78C878C111
:10013000FAD8520724BF30C830C144BF04680C60ED
:10014000704700000023002400250026103A28BF35
:1001500078C1FBD8520728BF30C148BF0B60704739
:100160006E2900F06181702900F0A382662903F0F6
:10017000EB84652903F0E884672903F0E5846129AD
:1001800003F0E48403681B0A28BF41F08001692959
:1001900000F00E81642900F00B81752900F00881C0
:1001A0006F2900F03182782900F06F82E92900F090
:1001B000CB81E42900F0C881F52900F0C581EF2941
:1001C00000F02E82F82900F06E820368DB0928BF58
:1001D00041F08001632900F06F87732900F0748774
:1001E000E32900F07F87F32900F08487002070471F
:1001F0001FB500F0D5FF04000020002103F08EFCA5
:10020000401C60600020002103F072FCE0601FBD14
:1002100010B510BD00F096FF1146FFF7E9FF03F09F
:1002200027F801F073F803B4FFF7F2FF03BC01F005
:10023000BBF800000948804709480047FEE7FEE791
:10024000FEE7FEE7FEE7FEE7FEE7FEE7FEE7FEE786
:1002500004480549054A064B7047000081290008FB
:10026000ED000008280200202808002028040020B3
:10027000280400201CB50C46064B7B4469460090C0
:10028000204600F0EAF804460020694600F0F8F83D
:1002900020461CBD030200004FF0000200B51346CB
:1002A00094469646203922BFA0E80C50A0E80C5096
:1002B000B1F12001BFF4F7AF090728BFA0E80C5047
:1002C00048BF0CC05DF804EB890028BF40F8042B40
:1002D00008BF704748BF20F8022B11F0804F18BFAD
:1002E00000F8012B704770477047704770B504469F
:1002F00085690068C10601D5302600E02026C007C8
:1003000007D070BDD4E9012130469047206A401CD7
:1003100020626D1EF6D570BD70B504468569007803
:10032000C00707D170BDD4E9012120209047206A81
:10033000401C20626D1EF6D570BD09684A0501D5C6
:1003400040B27047C905FCD500B2704709684A053C
:1003500001D5C0B27047C905FCD580B2704770B5F1
:100360000C460546012A05D02878800600D5EA69A2
:10037000002302E0012305E05B1C934202D2E05C13
:100380000028F9D1A869E618C01AA861286A18449B
:1003900028622846FFF7AAFF04E0D5E9012114F8F6
:1003A000010B9047B442F8D32846FFF7B5FF70BD64
:1003B0002DE9F0410646002410687529314616A53E
:1003C00010D0FFF7BAFF002802DA404213A507E079
:1003D00031688A0701D512A502E0490704D511A5A5
:1003E000012401E0FFF7B2FF00210A2206F12407F1
:1003F00009E0B0FBF2FCB0FBF2F302FB1C00303072
:1004000078541846491C0028F3D123462A46304622
:10041000BDE8F04100F061BA000000002D000000CE
:100420002B0000002000000011680268006A5305DC
:1004300001D508700AE0D30501D5088006E013064F
:1004400003D5C217C1E9000200E00860012070472F
:1004500001694A1C02610878704700B58FB0CDE988
:1004600001310021059105497944CDE90310114678
:10047000684600F029F90FB000BD0000E5FFFFFF5E
:100480000A6802F8010B0A60704700002DE9FF5F5F
:1004900015468A460446DFF8AC80F8440027D8E9C0
:1004A00000103E46CDE9001010E03AF816106A46FA
:1004B00002A800F023FE411C07D02178890603D54D
:1004C000E269391891420DD80744761C20788006DD
:1004D00002D5E069B84205DDAE42E6DB3AF8160027
:1004E0000028E2D1A069C01BA0612046FFF7FEFEF4
:1004F000D8E90010CDE90010002017E03AF81810F4
:100500006A4602A800F0FAFDB0F1FF3F81460BD029
:1005100000250DF1080B05E0D4E901211BF80500C9
:1005200090476D1C4D45F7D308F10100B04280465D
:10053000E4DB206A384420622046FFF7EDFEBDE888
:10054000FF9F0000B23600002DE9F0418046D21D29
:1005500022F007020025D2E90002F52915A614D0E1
:10056000011E72F1000106DA0023D0EB030063EBF9
:10057000020211A608E0D8F800108B0701D50FA6DB
:1005800002E0490701D50EA601251146002408F115
:10059000240704E000F05CF930323A55641C50EA5C
:1005A0000102F7D12B46324621464046BDE8F041D4
:1005B00000F093B9000000002D0000002B000000A7
:1005C0002000000030B4002100F1240408E002F013
:1005D0000705D208303542EA4372DB086554491CEE
:1005E00052EA0305F3D10468002310A2250708D5B9
:1005F00004F020040C4304D0C46901230CA2641E3F
:10060000C46130BC00F069B910B5044621461068D9
:10061000FFF79CFE02462046BDE810400023D1E7CC
:10062000D21D22F00701D1E90023CBE70000000032
:1006300030000000F0B40D460188090502D5214CB8
:100640007C4402E01F4C7C440E34002100F124065F
:1006500008E002F00F071209E75D42EA03721B0986
:100660007754491C52EA0307F3D10278002312079A
:1006700004D5702D06D009B1022311342246F0BCF6
:1006800000F02BB901231034F8E770B504460D468D
:1006900021461068FFF75AFE024629462046BDE86B
:1006A00070400023C6E7D21D22F00703D3E90023E0
:1006B000C0E70368126843F0200303600823C361A6
:1006C0000023B7E7143500002DE9F05F89460446A2
:1006D0004FF0000ADFF874B1FB44C0F820A02046B8
:1006E000E1688847002874D0252806D0D4E9012184
:1006F0009047206A401C2062F1E700265F462046B2
:10070000E16888472028054607DB312D05D2781996
:1007100010F8200C08B10643F1E7B00701D526F028
:100720000406C4F81CA00027C4F818A02A2D09D07C
:10073000284603F0D5F938B304EB8708303DC8F8F4
:10074000185019E059F8041B204604EB8702916108
:10075000E1688847012F054618D1E069002820DAB2
:1007600026F020061DE0D8F8180000EB800005EB0D
:1007700040003038C8F818002046E1688847054630
:1007800003F0AEF90028EED1012F0AD02E2D08D1AA
:100790002046E16888477F1C0546022F46F0200668
:1007A000C4DBA069002803DA404246F00106A061DC
:1007B000F00701D026F010066C2D0BD0682D09D063
:1007C0004C2D39D06A2D35D0742D35D07A2D33D0BB
:1007D00016E038E0E1682F4620468847B8420546D3
:1007E00009D16C2F26D04FF48060E1680643204683
:1007F0008847054604E06C2F1AD04FF480700643FA
:100800000DB3A5F14100192802D8203546F4006641
:100810004A462946204626604E46FFF7A1FC80B195
:1008200001280BD0F61D26F0070000F1080956E755
:100830004020E4E78020D8E70020D6E706F104094D
:100840004DE7284652E7206ABDE8F09FA434000037
:1008500030B5B0F10A0271F100034FEA900E4EEA92
:10086000817EB0EB0E0061EB91014FEA101E4EEA63
:10087000017E10EB0E0041EB11114FEA102E4EEAF3
:10088000016E10EB0E0041EB11214FEA104E4EEAC3
:10089000014E10EB0E0041EB1141401841F10001F7
:1008A0004FEAD00040EA41704FEAD1014FEA81049B
:1008B00044EA907410EB800544EB01046D1944EB9D
:1008C0000404521BA3414FF0000348BF0A3200D575
:1008D00030BD401C41F1000130BD2DE9F0470D460F
:1008E00099469246044600F124080168880604D51A
:1008F000E06921F01001216000E00120A84201DD43
:10090000471B00E00027A1697A1902EB0900081AC9
:10091000A0612078C00602D42046FFF7E7FC00263D
:1009200008E0D4E901211AF806009047206A401C2B
:10093000761C20624E45F4DB2078C0060AD520469E
:10094000FFF7D4FC06E0D4E9012130209047206A6B
:10095000401C2062381EA7F10107F4DC07E0D4E94F
:10096000012118F805009047206A401C2062281ECB
:10097000A5F10105F3DC2046FFF7CEFC2078000648
:1009800002D50220BDE8F0870120FBE72DE9FF4FEB
:100990000C461E464FF0FF378BB0D2E90001DDF860
:1009A00060800A908A46C1F30A5505B93D46002188
:1009B00008464FF00000BAF1000F00F4400005DADD
:1009C00000EB80004FF4400101EA50004FEA9059DB
:1009D000B9F1010F00DDB9460A9850EA4A000ED07D
:1009E00044F61050A5F2FF3545432F14B8F1000F1F
:1009F0001ED07542291E1EDDC9F100021CE0B8F1AF
:100A0000010F4FF0000001D0302103E0F24305E078
:100A10002154401CB042FBDB30460022002121540F
:100A20000B99C1F80880C1E900200FB0BDE8F08F34
:100A3000BD1B6D1CDEE74A4600DA694206A800F0DD
:100A4000F3FB06AB93E8070003AB83E807005046CF
:100A50000A9902F069FC8DE80700A0F500501F38E4
:100A600000900398002D0ADD42F21F014A46084417
:100A7000002303A90390684602F0D2FE09E0A0F526
:100A800000504A461F38002303A90390684602F02D
:100A9000DCFE8DE807000004000C03D04FF0FF30AF
:100AA000410800E01046B8F1000F03D00022009288
:100AB00015461EE0751E05D4FFF7CAFE303262559A
:100AC0006D1EF9D5B3460122084302D000227F1CD7
:100AD00004E02078302801D100227F1E002A0997E7
:100AE00084D01DE0112D07DAFFF7B2FE30326255D7
:100AF0006D1C50EA0102F5D1084302D00098C8B13C
:100B00000EE00021681E05E0235C625C6354225401
:100B1000401E491C8142F7DBAB46A81B401E0990D2
:100B2000002004F80B000B98099AC0F80880C0E96F
:100B3000002B7AE711264FF0000857E72DE9F04F18
:100B400088460446D21D22F0070191B0D1E9000188
:100B5000CDE90A0102F0B0FF02460B98C00F01D0A8
:100B60002D2007E02068810701D52B2002E02021FD
:100B700001EAC000032A099001D0072A05DB0346D9
:100B80004146204600F010FB0BE12078800601D59D
:100B9000E06900E00620B8F1650F814606D0B8F1A3
:100BA000660F18D0B8F1670F70D131E00020B9F1AD
:100BB000110F009001DB112301E009F101030AAAE2
:100BC00001A90CA8FFF7E2FEDDE90C70002609F18F
:100BD0000105834647E001204B4600904FF0004757
:100BE0000AAA01A90CA8FFF7D1FEDDE90DB00C9906
:100BF0005D46002610B909F101000D18B9EB05009A
:100C000003D4C0F1FF3609F10105A5EB09002BE083
:100C1000B9F1010F01DA4FF001090020B9F1110F0C
:100C20000090484601DD112300E003460AAA01A90D
:100C30000CA8FFF7ABFEDDE90C704D46002683469D
:100C4000207800070AD4AB4500DA5D4601A8012DE3
:100C500004DD411911F8011C302907D04F4502DA93
:100C600017F1040F04DA012082460FE06D1EEEE753
:100C7000002F02DCED1B3E4403E0781CA84200DD9F
:100C80007D1CB81B00F1010A4FF0004720780007D7
:100C900003D4AA4501DB4FF0FF3A0021B7F1004F22
:100CA0000DF143088DF8431024D002202B23002F90
:100CB00001DA7F422D230A21021EA0F1010000DC8F
:100CC0005FB197FBF1FC97FBF1F201FB1C7C17462F
:100CD0000CF1300C08F801CDEEE7A8F1010003702B
:100CE0002188090501D5452100E06521A0F1010811
:100CF00000F8011C09980FA9A1EB0807FF1D00B11E
:100D00000120411901EBEA70A1693844081A401E1C
:100D1000A0612078C00602D42046FFF7E7FA0998C0
:100D200028B1D4E901219047206A401C2062207834
:100D3000C00622D52046FFF7D9FA1EE0002E04DBBC
:100D4000B34502DD01A8805D00E03020D4E9012137
:100D50009047206A401C2062761CAAF101005FEADD
:100D6000000A0AD100F01CFAC0680168405CD4E9AE
:100D700001219047206A401C2062281EA5F1010530
:100D8000DCDC07E0D4E9012118F8010B9047206A68
:100D9000401C2062381EA7F10107F3DC2046FFF754
:100DA000BBFA032011B041E62DE9F04F04460D4691
:100DB000D21D22F0070089B0D0E900974846394695
:100DC00002F07AFE0246F80F01D02D2307E02068DA
:100DD000810701D52B2302E0202101EAC0038DF811
:100DE00020300BB1012000E00020032A824601D010
:100DF000072A04DB2946204600F0D6F93FE1207897
:100E0000800601D40D2500E0E569C7F30A560D2DD3
:100E100049DA00214FEA175B08464FF00000002F27
:100E200000F4400007DA00EB80004FF4400100EBD3
:100E3000D07001EA60008115012901DD4FF0FF311A
:100E400000224FEA850CBCF1180F06D31346ACF113
:100E500018004FF08052C24003E04FF4801323FA91
:100E60000CF30CF10C0CBCF1200F04D3ACF1200CF2
:100E700009FA0CF001E007FA0CF000294FF00048E5
:100E800001DD18B90FE00ED140450CD319EB020972
:100E90005F4121B9404502D19F4329EA0209BBEBDA
:100EA000175F00D0761C2088000502D57B48784467
:100EB00002E07A487844193808AA302302F80A3048
:100EC000037C0AF10101002E0AF1020A53546A461A
:100ED00002DC4FF0300101E04FF031014FF001082A
:100EE0008DF8001002D0A6F2FF3603E059EA470160
:100EF00000D06B4E002D02DC2178090704D54FF09D
:100F000002082E218DF80110C44600210BE0C7F322
:100F100003433F01C35C491C6D1E02F808300529DC
:100F200008F1010801DA002DF1DC00210CE000EBF2
:100F30001973491C1B786D1E082902F808304FEA06
:100F4000091908F1010801DA002DF0DC21688B068F
:100F500002D516E0A8F10108E04505DD02EB080323
:100F600013F8013C302BF5D0B8F1000F09DD02EB8E
:100F7000080313F8013C2E2B03D1090701D4A8F173
:100F80000108002D05DD3E2102F808106D1E08F154
:100F90000108407C002E02F8080008F1010804DA7C
:100FA0002D20764202F8080002E02B2002F808000B
:100FB0000A214FF47A70864208F101080BDB96FB98
:100FC000F0F3303302F8083096FBF0F308F1010833
:100FD00000FB136601E0642E0CDB642096FBF0F34B
:100FE000303302F8083096FBF0F308F1010800FBFB
:100FF000136601E00A2E06DB96FBF1F0303002F8B2
:10100000080008F1010896FBF1F001FB1060303098
:1010100002F80800A16908F1010808EB050202EBDB
:101020000A00081AA0612078C00602D42046FFF703
:101030005DF9216A08AE01EB0A00206204E0D4E900
:10104000012116F8010B9047BAF1010AF7D2207876
:10105000C00602D52046FFF749F96E4609E016F8AA
:10106000010B3E280FD0D4E901219047206A401C93
:101070002062B8F10108F2D22046FFF74DF909B01D
:101080000320BDE8F08F206A2844206203E0D4E901
:101090000121302090476D1EEBD3F8E7F22C0000C1
:1010A00002FCFFFF10B5436913B1AFF3008001E00C
:1010B000FFF755F9012010BD127800F124010A70E4
:1010C00000224A700122EDE711684FF0FF32E9E794
:1010D00010B5436913B1AFF3008001E0FFF7D6F913
:1010E000012010BD128800F1240182840022C284F4
:1010F0000122EDE711684FF0FF32E9E72DE9F041F9
:1011000016460C46054600F043F8036893F80101C3
:10111000012807D0FF2C12D8185D80B101202C7057
:10112000BDE8F081D3F807013246214603F20713E8
:10113000C7182846BC46BDE8F041002360474FF081
:10114000FF30EDE7754600F0EBF8AE460500694666
:10115000534620F00700854618B020B5FFF778F811
:10116000BDE820404FF000064FF000074FF00008A8
:101170004FF0000BAC46ACE8C009ACE8C009ACE8E5
:10118000C009ACE8C00921F007018D467047000096
:1011900010B500F005F8001D10BD00BF812900004A
:1011A00000487047600000202DE9F0411F460446CA
:1011B00003260168072A01F4006004DB08B116A5C4
:1011C00005E016A503E008B115A500E015A521F07E
:1011D00010002060A069C01EA0610FB1401EA06178
:1011E0002046FFF783F84FB1D4E9012138469047F4
:1011F000206A401C2062C01C206206E0206AFAE7D8
:10120000D4E9012115F8010B9047761EF8D220464B
:10121000FFF782F8BDE8F0814E414E006E616E002E
:10122000494E4600696E66002DE9F0478146164634
:101230008AB0354878440DC88DE80D0032487844AE
:10124000801C03AC0DC884E80D0041F69B300844B7
:10125000372190FBF1F290FBF1F5A5F1800501FB40
:1012600012041B3C02D56442012000E00020DFF89C
:1012700098A080460027FA44AAF1BE0A0EE0E007D3
:101280000AD03246684607EB470101230AEB810189
:1012900002F0DBFA8DE8070064107F1C002CEED111
:1012A000194F7F44AE3F19E0E80715D007EB041053
:1012B0000DF1180A90E80E008AE80E00C068F042AE
:1012C00001D1981908903246012306A903A802F01B
:1012D000BCFA03AB83E807006D10641C002DE3D15A
:1012E0004FF0010332466946B8F1000F03A802D05F
:1012F00002F096FA01E002F0A8FAC9E90001C9F883
:1013000008200AB0BDE8F087FC29000010B50446AB
:10131000AFF300802046BDE81040FEF784BF000018
:1013200000487047400000204FF0013C50F8042B6B
:1013300051F8043B9A4221D1A2EB0C03934313EAE8
:10134000CC1317D150F8042B51F8043B9A4215D115
:10135000A2EB0C03934313EACC130BD150F8042BEC
:1013600051F8043B9A4209D1A2EB0C03934313EAD0
:10137000CC13DBD04FF00000704700BFD01A01BA89
:10138000B1FA81F101F0180122FA01F0CB40DBB291
:10139000C0B2C01AC1F120012CFA01F3D11A914355
:1013A00011EAC311E6D1704701491820ABBEFEE730
:1013B000260002007047000083B0B0B59BB0044621
:1013C0001FA802AD0EC028466421FEF765FF1FAAC4
:1013D000284621460192FEF74DFF40F2B810C2F2B6
:1013E0000000294664224FF0FF3301F017F91BB0CB
:1013F000BDE8B04003B0704710B540F2A004C2F29F
:1014000000042046C821FEF747FF40F2B810C2F2A0
:101410000000214601224FF0FF3301F027F858B9B0
:10142000214611F8012B40F2B810C2F200004FF033
:10143000FF3301F01BF808B1002010BD60781038B0
:10144000112837D8DFE800F00A14181C22262A2EAB
:1014500032343636363636363C4200BF43F6CD405F
:10146000C0F60000FFF7A8FF01F01CFD012010BD31
:1014700001F09EFC012010BD01F01AFC012010BDFE
:1014800043F6E840C0F600001BE000BF01F08AFD13
:10149000012010BD01F060FB012010BD01F03EFEF7
:1014A000012010BD01F0C6FA012010BD25A008E002
:1014B0001AA006E043F69140C0F6000001E000BF2C
:1014C0000FA0FFF779FF012010BD00BF03A0FFF7B9
:1014D00073FF01F05FFA012010BD00BF43424C5F73
:1014E0004348414E47455F524F505F4C4556454C2F
:1014F0005F434D4420726561636865642E0D0A0088
:1015000043424C5F4F54505F524541445F434D440A
:1015100020726561636865642E0D0A0043424C5F6A
:10152000524541445F534543544F525F53544154D5
:1015300055535F434D4420726561636865642E0DA9
:101540000A00000043424C5F4D454D5F5245414407
:101550005F434D4420726561636865642E0D0A0027
:10156000FEE7000070470000EFF3108072B600BF86
:10157000FEE7000070B542F20C060446C4F2020613
:1015800000F000FB3168C90718D13068800644BFFD
:10159000202030603068C00607D43069C00704D10D
:1015A000306840075CBF002070BD3068C00623D49F
:1015B0000020316849072BD434E000BF002C47D00D
:1015C0000546601C0ED13068C007DED03068C00709
:1015D0001CBF30685FEAC070D7D03068C007F2D156
:1015E000D3E700BF00F0CEFA401BA04230D83068ED
:1015F000C007F7D1C9E700BF40F20020C2F20000E7
:10160000C16941F00201C16110203168490709D563
:1016100040F20021C2F20001CA6940F0040042F029
:101620000102CA613169C90702D13060012070BD71
:1016300040F20021C2F20001CA6942F00402CA610C
:10164000316921F0010131613060012070BD00BFBE
:10165000032070BDB0B5864602208EF80500DEF886
:10166000000042B1531E032B02F0030C08D20022EB
:10167000BCF1000F1AD1006801218EF80510B0BD31
:1016800022F00302A1F110035442002253F8105F2C
:10169000043A05605D68944205609D680560DD68F8
:1016A0000560F3D15242BCF1000FE4D051F8223072
:1016B000BCF1010F0360DED001EB82014A68BCF18E
:1016C000020F02601CBF89680160006801218EF86A
:1016D0000510B0BD002804BF0120704710B50446B6
:1016E000407918B101206071002010BD00202071E8
:1016F000204600F005F801206071002010BD0000B8
:1017000081B0006843F20001C4F20201884201D0B6
:1017100001B0704741F21400C4F20200016841F0C8
:1017200040010160006800F040000090009801B0A6
:1017300070470000B0B5044600F024FA054640F2B8
:101740002400C2F200000078611C18BF044400BFEE
:1017500000F018FA401BA042FAD3B0BD2DE9F043C7
:1017600081B040F20026C2F20006327E012A03D187
:10177000022001B0BDE8F083054601202C683076D8
:101780004CF250308846FFF7F5FE022C1CD10028A1
:101790004ED1002042F21004F061C4F2020420682D
:1017A00040F004002060206840F0400020604CF2CF
:1017B0005030FFF7DFFE216821F004012160002195
:1017C000317601B0BDE8F08390BB4FF0FF30C8F830
:1017D0000000D5E9027007EB8020874228D242F250
:1017E0001004C4F202044FF0000900BFC6F81C90B8
:1017F000206840F0020020606760206840F04000F0
:1018000020604CF25030FFF7B5FE216821F0020154
:10181000216098B9D5E9020107F5806700EB8120C6
:101820008742E3D300200021317601B0BDE8F08388
:1018300001200021317601B0BDE8F083C8F80070C6
:101840000021317601B0BDE8F0830000072101607E
:1018500042F21C01C4F202014A6882600A689207DF
:101860004FF0000258BF6FF05A0202740968C1F3CA
:10187000820141747047000042F21001C4F202017B
:10188000086840F0800200200A6070472DE9F04FA0
:1018900081B040F20029C2F20009924699F818205E
:1018A000012A03D1022001B0BDE8F08F804601205B
:1018B00089F818004CF250309B460E46FFF75AFE4E
:1018C000A0BB404642F21007B8F1020F18BF042037
:1018D000C4F20207B8F1010F08BF404645424FF07D
:1018E00000080024C4F12001C9F81C802AFA04F081
:1018F0000BFA01F13A680843B4F1200158BF2BFA02
:1019000001F042F00101396026F8020B4CF2503030
:10191000FFF730FE3968013521F0010248F100017E
:101920003A6018B9002904F11004DBD0002189F8CD
:10193000181001B0BDE8F08F42F20400C4F20200BA
:10194000C16809065CBF0020704740F22311C4F251
:101950006751016048F6AB11CCF6EF510160C068E9
:10196000C0B2C009704700002DE9F04F82B00E6888
:10197000002E00F0038141F20042C4F20102042370
:1019800040F2004E904208BF03234FF6FF7CC4F2A2
:10199000010E009300240123C1F2100C4FF0000A45
:1019A0004FF0000949E000BF012704F00C030F22AB
:1019B0009A402BEA020207FA03F34FEA9A051A4308
:1019C00046F82520D1F804B040F20C455FEACB225E
:1019D000DEF8082054BF22EA080242EA0802C4F2F4
:1019E0000105CEF808202A685FEA8B2354BF22EA5B
:1019F000080242EA08022A605FEA8B33DEF804201C
:101A000054BF22EA080242EA08025FEACB33CEF86A
:101A10000420DEF800204FF0010354BF22EA080240
:101A200042EA0802CEF800200E680AF1010A36FAEE
:101A30000AF204F1040400F0A18003FA0AF816EA9D
:101A4000080FF1D04E68664512DC122E56D8DFE83A
:101A500006F0350B45495555555555555555555570
:101A60005555554D510000BFD1F80C9046E000BFD0
:101A70004FF6FF72C1F2210296420FDC0022C1F242
:101A8000110296421AD00022C1F21202964215D0DB
:101A90000022C1F22102964210D02FE00022C1F2B2
:101AA000220296420AD00022C1F23102964205D0AB
:101AB0000022C1F23202964220D100BF8A684AB1A8
:101AC000012A14BFC0F81480C0F810804FF0080934
:101AD00014E000BF4FF0040910E000BFCA6802F133
:101AE00008090BE04FF0000908E000BFCA6802F1E6
:101AF000040903E0CA6802F10C0900BF2246064649
:101B0000BAF1080F24BF203A043637680F259540F4
:101B100027EA050509FA02F22A433260CA79D20699
:101B20007FF582AF41F21803C4F202031A68AEF5E2
:101B30007E7642F001021A601A6802F001020192F8
:101B4000019A2AF0030256F802B040F60002C4F2ED
:101B50000102904210D040F60042C4F201029042CD
:101B60003FF422AF41F20002C4F20102009F904212
:101B700008BF022719E700BF002716E702B0BDE83B
:101B8000F08F000040F22020C2F200000068704791
:101B900040F2240040F22021C2F20000C2F2000113
:101BA00000780A68104408607047000080B542F26F
:101BB0000000C4F20200016841F01001016003203E
:101BC00000F07AF80F2000F005F800F027F8002068
:101BD00080BD000070B540F22406C2F2000640F25B
:101BE00038013278C2F200014FF47A730968B3FB0E
:101BF000F2F20446B1FBF2F1084600F04FFB0F2C65
:101C00004FF0010508D838B94FF0FF3021460022C7
:101C1000002500F025F87460284670BD82B041F2BE
:101C20001800C4F202000168042241F001010160C1
:101C3000016801F0010101910199416841F0805171
:101C40004160406800F08050009000980420C4F289
:101C50000100016862F31A61016002B07047000080
:101C600010B54EF60C5CCEF2000CDCF80030C3F37D
:101C7000022E8EF00704042C28BF0424BEF10303B7
:101C80004FF0FF3E0EFA04F438BF0023A143994001
:101C90000EFA03F39A43114300F00F0200F1604380
:101CA0000901043A03F564436244002848BF02F185
:101CB0000C03197010BD00004EF60C51CEF200015D
:101CC0000A684FF6FF031A4060F30A2242F0806070
:101CD00040F0FD70086070472DE9F04381B00028A6
:101CE00000F0858042F20008C4F202080446D8F8E9
:101CF00000000D4600F0070088420CD2D8F8000022
:101D000020F007002843C8F80000D8F8000000F0D1
:101D10000700A8426BD1206841F204098107C4F290
:101D2000020917D5410705D5D9F8001041F4E06143
:101D3000C9F80010010705D5D9F8001041F4605129
:101D4000C9F80010D9F80010A26821F0F001114381
:101D5000C9F80010C00741D1D8F8000000F0070012
:101D6000A8420CD9D8F8000020F007002843C8F892
:101D70000000D8F8000000F00700A84237D1206822
:101D8000410707D5D9F80010E26821F4E06111435A
:101D9000C9F80010000708D5D9F80000216920F41F
:101DA000605040EAC100C9F80000D9F8002002F0F4
:101DB0000C00082841F20020C0F27A0050D143F60E
:101DC0006643C2F38341C0F60003595CD2033BD49F
:101DD00040F60010C0F23D00484341E06068022830
:101DE0000AD001282AD159F8041C890308D40120FB
:101DF00001B0BDE8F08300BF59F8041C8901F6D595
:101E0000D9F8001021F003010843C9F80000FFF7DA
:101E1000B9FE064641F28837D9F80000616800F043
:101E20000C00B0EB810F97D0FFF7ACFE801BB842DF
:101E3000F2D9032001B0BDE8F08300BF59F8041CBB
:101E40008907D4D5DCE700BFD9F8002043F6644306
:101E5000C2F34042C0F600039A5C4843B0FBF2F084
:101E6000D9F8001043F64C42C1F30311C0F600024A
:101E7000515C40F2380220FA01F140F22800C2F22F
:101E800000000068C2F200021160FFF7A3FE00200C
:101E900001B0BDE8F083000040F2380041F20401D7
:101EA000C2F20000C4F202010068096843F65C4215
:101EB000C1F30221C0F60002515CC8407047000027
:101EC00040F2380041F20401C2F20000C4F2020103
:101ED0000068096843F65C42C1F3C221C0F6000203
:101EE000515CC840704700002DE9F04182B00028E5
:101EF00068D00446007841F20006C007C4F202062A
:101F000025D0706800F00C0004281BD0706800F029
:101F10000C00082802D17068C00313D46068002840
:101F200000F06881B0F5A02F00F07C81B0F5803F13
:101F300000F07C81306820F480303060306820F41C
:101F4000802076E13068800301D56068D0B32078C6
:101F5000800718D5706810F00C0F07D0706800F07B
:101F60000C0008286ED17068C0036BD430688007FD
:101F700002D52069012825D13068616920F0F80078
:101F800040EAC1003060207800071FD42078400765
:101F900032D4E56995B1706800F00C00082840F073
:101FA0008F80012D0ED07068216A00F480328A4241
:101FB00008D1616A00F47010884203D1002002B099
:101FC000BDE8F081012002B0BDE8F081A0690028E1
:101FD00062D00020C4F242200121C0F88014FFF733
:101FE000D1FD0546706A800700F18C80FFF7CAFDBD
:101FF000401B0228F6D92AE1F06910F0805808D178
:10200000F06940F08050F061F06900F0805000907D
:10201000009847F20007C4F200073868C00529D4C9
:10202000386840F480703860FFF7ACFD054600BFAB
:102030003868C0051ED4FFF7A5FD401B6428F7D9FA
:1020400005E100BF2069002840F20000C4F24220F0
:1020500000F0828001210160FFF794FD054600BF7A
:10206000306880073FF588AFFFF78CFD401B0228E2
:10207000F6D9ECE0E068002800F08080052800F048
:102080009780012800F09880306A20F001003062CB
:10209000306A20F0040092E00020C4F242200021C7
:1020A000C0F88014FFF76EFD054600BF706A800718
:1020B0007FF56CAFFFF766FD401B0228F6D9C6E03E
:1020C0000027C4F2422700203866FFF75BFD022D8F
:1020D00005460BD13068800140F1BE80FFF752FD0C
:1020E000401B02284FF00300F4D968E730688001F4
:1020F0007FF564AFFFF746FD401B02284FF0030059
:10210000F4D95CE740F23800C2F20000006844F6FF
:10211000D351C1F26201A0FB0101480A019000BF46
:1021200000BF0198411E002801913FF42FAF00BF6E
:102130000198411E002801913FF428AF00BF01988B
:10214000411E002801913FF421AF00BF0198411EBC
:1021500000280191E4D119E700210160FFF712FD89
:10216000054600BF306880077FF50DAFFFF70AFD19
:10217000401B02284FF00300F4D920E7306A20F01A
:1021800001003062306A20F004003062FFF7FAFC90
:10219000054641F2883700BF306A800720D5FFF737
:1021A000F1FC401BB8424FF00300F5D907E700BF30
:1021B000306A40F004003062306A40F00100306262
:1021C000FFF7E0FC054641F2883700BF306A800720
:1021D00006D4FFF7D7FC401BB842F7D937E000BF61
:1021E000B8F1000F7FF4D5AEF06920F08050F061B7
:1021F000CFE600BF306820F480303060306820F4D3
:1022000080203060FFF7BEFC054600BF30688003C9
:102210007FF59DAEFFF7B6FC401B64284FF003002E
:10222000F4D9CCE6306840F480203060306840F467
:1022300080303060FFF7A6FC054600BF30688003A1
:102240003FF585AEFFF79EFC401B6428F6D90320BE
:1022500002B0BDE8F08100BF206AB0F5803F05D133
:102260007168A26821F40031114371607168626A7B
:1022700021F4741111430843706001203866FFF7A0
:1022800081FC0446306880013FF598AEFFF77AFC88
:10229000001B02284FF00300F4D990E6411E0020F5
:1022A000B0EB116F1CBF012070474EF21002CEF24E
:1022B000000251604EF62351CEF20001F0230B7064
:1022C0000721906011607047002804BF012070470B
:1022D00010B5044690F8410028B9002084F8400069
:1022E000204600F063F8242084F841002068D4E9F7
:1022F0000212C36823F40053C360036923F44053FC
:102300001A430261D4E904231143C268194341F21C
:102310000C639A431143C1604169A26921F4407181
:10232000114343F60002C4F201029042416103D01E
:10233000FFF7B2FD02E000BFFFF7C2FD626819219E
:1023400048439100B0FBF1F048F21F51C5F2EB1188
:10235000A0FB01235A094FF69C73C0F6FF7302FBE2
:102360000300322303EB0010A0FB0101F02303EA7A
:102370005113206803EB0212C1F343111144816031
:10238000016921F490410161416921F02A01416113
:10239000C16841F40051C16000202021606484F8CC
:1023A000411084F84210606310BD000070B586B023
:1023B000006844F20041C4F2000188424FF000017D
:1023C000CDE90411CDE9021120D043F60001C4F299
:1023D0000101884248D141F21800C4F202000168AC
:1023E0004FF4806641F480410160016801F480414E
:1023F00001910199016841F004010160006800F059
:102400000400019001984FF4007017E041F21800A9
:10241000C4F202004168082641F40031416041687D
:1024200001F4003101910199016841F0040101605A
:10243000006800F00400019001980420029002203E
:1024400040F6000403900320C4F2010402AD05909D
:1024500020462946FFF788FA0020CDE903002046F0
:1024600029460296FFF780FA06B070BD2DE9F043C9
:1024700081B0044690F84200202827D188460029E0
:102480004FF0010000F0C7801746002A00F0C3801B
:10249000002022211D46606484F842102063FFF76B
:1024A00071FBA785E785A1680746B1F5805F03D179
:1024B0002069002800F0A68046464FF00008E08D15
:1024C000002800F0A48005F1010910E0022001B00D
:1024D000BDE8F083406800266FF35F2028F8020B08
:1024E000E08D0138E085E08D002800F090802068C4
:1024F000016889060ED4B9F1000F19D055B300BF99
:10250000FFF740FBC01BA84224D820680168890659
:10251000F6D500BF002EDDD0A168B1F5805F15D0E3
:1025200009B9216991B1406800F07F000FE000BF58
:1025300001688906EED4016889065CBF01685FEA1C
:102540008161E7D401688906F2D5E3E7406806F8BF
:10255000010BC5E7206850E8030F216820F4D07014
:1025600041E80302E2B1206850E8030F216820F43B
:10257000D07041E803029AB1206850E8030F216847
:1025800020F4D07041E8030252B1206850E8030FF4
:10259000216820F4D07041E80302002ADAD100BF9C
:1025A000206850E8050F216820F0010041E805028D
:1025B000DAB1206850E8050F216820F0010041E8F9
:1025C000050292B1206850E8050F216820F0010053
:1025D00041E805024AB1206850E8050F216820F063
:1025E000010041E80502002ADAD1202084F84100E8
:1025F00084F84200002084F84000032001B0BDE8C8
:10260000F08300BF0026E08D00287FF45CAF20201F
:1026100084F84200002001B0BDE8F0832DE9F043CA
:1026200081B0044690F84100202840F0B1808846EF
:1026300000294FF0010000F0D6801646002A00F075
:10264000D2800020606421201D4684F84100FFF7FD
:1026500099FAA684E684A1680646B1F5805F03D1A5
:102660002069002800F0988047464FF00008E18C70
:102670002068002900F0968005F101090BE000BFF9
:1026800047B317F8011B4160E18C0139E184E18C0B
:10269000002900F0878001680906F1D4B9F1000F24
:1026A0000AD0EDB1FFF76EFA801BA84218D8206857
:1026B00001680906F6D5E3E701680906E0D4016878
:1026C00009065CBF01685FEA0161D9D401680906A7
:1026D000F2D5D5E738F8021B00276FF35F21D2E768
:1026E000206850E8030F216820F4D07041E803020D
:1026F000BAB3206850E8030F216820F4D07041E895
:10270000030272B3206850E8030F216820F4D070F0
:1027100041E803022AB3206850E8030F216820F43F
:10272000D07041E80302002ADAD11AE0206850E8AC
:10273000050F216820F0010041E80502DAB12068A8
:1027400050E8050F216820F0010041E8050292B130
:10275000206850E8050F216820F0010041E80502DB
:102760004AB1206850E8050F216820F0010041E8D7
:102770000502002ADAD1202084F8410084F84200C2
:10278000002084F84000032001B0BDE8F08300BFC2
:10279000022001B0BDE8F0830027E18C2068002909
:1027A0007FF46AAF0168490619D4FDB1691C0DD1E7
:1027B0000168490613D4016849065CBF01685FEAF5
:1027C00041610CD401684906F2D508E0FFF7DAF957
:1027D000801BA8420AD8206800684006F6D5202051
:1027E00084F84100002001B0BDE8F083206850E883
:1027F000030F216820F4D07041E80302002A3ED084
:10280000206850E8030F216820F4D07041E80302EB
:10281000AAB3206850E8030F216820F4D07041E883
:10282000030262B3206850E8030F216820F4D070DF
:1028300041E80302002AD9D121E000BF206850E816
:10284000050F216820F0010041E80502002A3FF44D
:1028500092AF206850E8050F216820F0010041E8A0
:102860000502002A3FF487AF206850E8050F216871
:1028700020F0010041E80502002A3FF47CAF206807
:1028800050E8050F216820F0010041E80502002A08
:10289000D4D170E7FEE7000080B540F2681043F243
:1028A0000001C2F20000C4F202010160FEF712FF53
:1028B000002808BF80BDBDE88040FEF755BE00007F
:1028C00082B041F21800C4F20200016841F0200118
:1028D0000160016801F0200101910199016841F056
:1028E00004010160006800F004000090009802B04C
:1028F0007047000080B540F2701043F60001C2F24C
:102900000000C4F2010100234FF00C0C4FF4E1323F
:1029100080E80E00C0E90333C0E905C3C361FFF7D7
:10292000D3FC002808BF80BDBDE88040FEF71CBE78
:1029300080B540F2B81044F20041C2F20000C4F287
:10294000000100234FF00C0C4FF4E13280E80E0040
:10295000C0E90333C0E905C3C361FFF7B5FC002834
:1029600008BF80BDBDE88040FEF7FEBDFEE7000069
:10297000FEE700007047000070470000FFF708B94D
:102980004EF60850CEF200004FF000610160704733
:10299000FEE700002DE9F04182B043F60A50C0F690
:1029A0000000FEF709FD40F2A008C2F2000898F806
:1029B0000000C71E1CD040F268140021C2F20004BF
:1029C0006D46002618F80100294600902046012295
:1029D000FEF740FE0136F1B28F42F3D821688A68D3
:1029E00042F001028A6060B102B0BDE8F08100BF30
:1029F00040F26810C2F200000068816841F00101F5
:102A0000816043F67640C0F60000FEF7D5FC40F248
:102A1000AB10ADF8060040F2B810C2F200000DF1A4
:102A2000060102224FF0FF33FFF7F8FD02B0BDE8C8
:102A3000F08100002DE9F04188B043F60A50C0F65D
:102A40000000FEF7B9FC40F2A008C2F2000898F8B6
:102A50000000C71E36D040F268140021C2F2000404
:102A600001AD002618F801002946019020460122F8
:102A7000FEF7F0FD0136F1B28F42F3D821688A6883
:102A800042F001028A6030B340F268140021C2F2C1
:102A9000000401AD002600BF18F80100294601908E
:102AA00020460122FEF7D6FD0136F1B28F42F3D85F
:102AB00021688A6842F001028A6058B308B0BDE814
:102AC000F08100BF40F26810C2F200000068816827
:102AD00041F00101816043F67640C0F60000FEF748
:102AE0006BFC40F2B81440F2AB10C2F20004ADF837
:102AF000040001A9204602224FF0FF33FFF78EFDAC
:102B000001A8FEF7A3FE9DF8140001A98DF80400AA
:102B100020460AE009A0FEF74FFCCD208DF8040006
:102B200040F2B810C2F2000001A901224FF0FF33B9
:102B3000FFF774FD08B0BDE8F08100BF43524320A9
:102B40005665726966636174696F6E204661696C6F
:102B50006564200D0A0000002DE9F04186B00020D8
:102B6000009043F6AE40C0F60000FEF725FC40F2B0
:102B7000A008C2F2000898F80000C71E28D040F252
:102B800068140021C2F2000402AD002618F801000A
:102B90002946029020460122FEF75CFD0136F1B283
:102BA0008F42F3D821688A6842F001028A60C0B17E
:102BB00043F64550C0F60000FEF7FEFBCD208DF831
:102BC000080040F2B810C2F2000002A946E000BFBF
:102BD00040F26810C2F200000068816841F0010113
:102BE000816043F67640C0F60000FEF7E5FB40F258
:102BF000AB10ADF8080040F2B810C2F2000002A914
:102C000002224FF0FF33FFF709FD98F8031098F800
:102C100002000022202901921AD8421CD2B2202A96
:102C200015D8FF2804D000220292CDE9040101E06A
:102C30000220029001200390FEF77EFE02A801A967
:102C4000FEF78CFD019CFEF717FE601C0ED00222E1
:102C500040F2B810C2F200006946009201224FF023
:102C6000FF33FFF7DBFC06B0BDE8F08103200090E6
:102C700040F2B810C2F20000694601224FF0FF3363
:102C8000FFF7CCFC02A0FEF797FB06B0BDE8F08191
:102C900045726173696E6720446F6E65205375637A
:102CA0006365737366756C6C79200D0A0000000013
:102CB0002DE9F04184B030A0FEF77EFB40F2A00881
:102CC000C2F2000898F80000C71E31D040F2681424
:102CD0000021C2F2000402AD002600BF18F8010076
:102CE0002946029020460122FEF7B4FC0136F1B2DB
:102CF0008F42F3D821688A6842F001028A6000B3EB
:102D000043F64550C0F60000FEF756FBCD208DF887
:102D10000F0040F2B810C2F200000DF10F010122C5
:102D20004FF0FF33FFF77AFC04B0BDE8F08100BF3D
:102D300040F26810C2F200000068816841F00101B1
:102D4000816014A0FEF738FB42F20000CEF20400CE
:102D500000680DF106016FF31F30ADF8060040F278
:102D6000B810C2F2000002224FF0FF33FFF756FC0A
:102D700004B0BDE8F08100BF43424C5F4745545F5B
:102D80004349445F434D4420726561636865642E26
:102D90000D0A0000435243205665726966636174F0
:102DA000696F6E205061737365640D0A0000000046
:102DB0002DE9F04182B034A0FEF7FEFA40F2A008FF
:102DC000C2F2000898F80000C71E31D040F2681423
:102DD0000021C2F200046D46002600BF18F8010071
:102DE0002946009020460122FEF734FC0136F1B25C
:102DF0008F42F3D821688A6842F001028A6000B3EA
:102E000043F62C50C0F60000FEF7D6FACD208DF820
:102E1000070040F2B810C2F200000DF107010122D4
:102E20004FF0FF33FFF7FAFB02B0BDE8F08100BFBF
:102E300040F26810C2F200000068816841F00101B0
:102E4000816043F67640C0F60000FEF7B5FA40F226
:102E5000B81440F6AB40C2F20004ADF8040001A97A
:102E6000204602224FF0FF33FFF7D8FB40F22C013F
:102E7000C2F2000120460C224FF0FF33FFF7CEFBD9
:102E800002B0BDE8F08100BF43424C5F4745545F4C
:102E900048454C505F434D442072656163686564EA
:102EA0002E0D0A002DE9F04184B04FF4B27001906C
:102EB00031A0FEF781FA40F2A008C2F2000898F8AB
:102EC0000000C71E30D040F268140021C2F2000496
:102ED00002AD002618F80100294602902046012282
:102EE000FEF7B8FB0136F1B28F42F3D821688A6849
:102EF00042F001028A6000B343F62C50C0F6000095
:102F0000FEF75AFACD208DF80F0040F2B810C2F249
:102F100000000DF10F0101224FF0FF33FFF77EFBA0
:102F200004B0BDE8F08100BF40F26810C2F20000BA
:102F30000068816841F00101816043F67640C0F687
:102F40000000FEF739FA40F2B81440F2AB40C2F28A
:102F50000004ADF80C0003A9204602224FF0FF3315
:102F6000FFF75CFB01A9204604224FF0FF33FFF777
:102F700055FB04B0BDE8F08152656164207468655A
:102F800020426F6F746C6F61646572207665727336
:102F9000696F6E2066726F6D20746865204D4355B1
:102FA000200D0A002DE9F04184B046A0FEF704FA96
:102FB00040F2A008C2F2000898F80000C71E29D00D
:102FC00040F268140021C2F2000402AD002600BFE6
:102FD00018F801002946029020460122FEF73AFB2C
:102FE0000136F1B28F42F3D821688A6842F00102BB
:102FF0008A60C0B143F64550C0F60000FEF7DCF928
:10300000CD208DF80F0040F2B810C2F200000DF193
:103010000F014FE040F26810C2F2000000688168C2
:1030200041F00101816043F67640C0F60000FEF7F2
:10303000C3F940F2AB10ADF80C0040F2B810C2F288
:10304000000003A902224FF0FF33FFF7E7FAD8F898
:103050000240002104F16040B0F5A04F4FF00000A5
:1030600004F1784298BF0120B2F1011F38BF01215D
:1030700008438DF8070017D01AA0FEF79DF940F21B
:10308000B810C2F200000DF1070101224FF0FF332A
:10309000FFF7C4FA601C80471BA02146FEF78CF99D
:1030A00004B0BDE8F08100BF40F2B810C2F20000E9
:1030B0000DF1070101224FF0FF33FFF7AFFA04B023
:1030C000BDE8F08143424C5F474F5F544F5F41443E
:1030D00044525F434D4420726561636865642E0D00
:1030E0000A0000004164647265737320566572665D
:1030F00069636174696F6E205375636365646465A9
:1031000064200D0A000000004A756D7020746F2065
:103110003A30782558200D0A000000002DE9F041D2
:1031200084B000208DF8060043F6AE40C0F60000E3
:10313000FEF742F940F2A008C2F2000898F8000039
:10314000C71E29D040F268140021C2F2000402AD6B
:10315000002600BF18F801002946029020460122EF
:10316000FEF778FA0136F1B28F42F3D821688A6807
:1031700042F001028A60C0B143F64550C0F600003B
:10318000FEF71AF9CD208DF80F0040F2B810C2F208
:1031900000000DF10F0162E040F26810C2F2000081
:1031A0000068816841F00101816043F67640C0F615
:1031B0000000FEF701F940F2AB10ADF80C0040F250
:1031C000B810C2F2000003A902224FF0FF33FFF74C
:1031D00025FAD8F8024098F8065004F16040B0F59E
:1031E000A04F4FF0000004F178424FF0000198BF6B
:1031F0000120B2F1011F38BF012108438DF80700FB
:103200001CD0FEF799FB08BB05B308F1070600BF09
:103210003278002021460023FEF738FBB0B9013D8B
:1032200006F1010604F10104F2D1FEF725FBB0FA24
:1032300080F1490900288DF806100AE040F2B81024
:10324000C2F200000DF1070109E000BF00208DF877
:10325000060040F2B810C2F200000DF10601012292
:103260004FF0FF33FFF7DAF904B0BDE8F08100005A
:1032700090B0FEF79BFC4FF48030002401250790AE
:1032800006A8CDE90E44CDE90C44CDE90A44CDE9C8
:1032900008440695FEF728FE20B1EFF3108072B6C1
:1032A000FEE700BF0F20CDE9010501A80021CDE90F
:1032B00003440594FEF710FD20B1EFF3108072B6C1
:1032C000FEE700BFFFF7FCFAFFF714FBFFF730FB48
:1032D000FFF7E2FA0EA0FEF76FF840F20005C2F227
:1032E0000005002405F10E0630462146FEF764F87D
:1032F0004FF4FA70FEF71EFA28462146FEF75CF8F6
:103300004FF4FA70FEF716FA0134FEF775F8EBE7A2
:10331000426F6F746C6F6164657220737461727454
:1033200065642E2E2E0D0A005FEA400C08BF91F056
:10333000000F4FEA8C234FEAC12243EA51514FEA72
:103340001C5018BF00F5F0404FEA300018BF41F0A4
:1033500000415FEA6C5C00F02980BCF1FF3F08BFD0
:1033600040F080407047130C06BF12044FF0100C61
:103370004FF0000C130E04BF12020CF1080C130FD7
:1033800004BF12010CF1040C930F04BF92000CF166
:10339000020CD30F04BF52000CF1010C11464FF088
:1033A0000002A0F11F00A0EB0C00704711F0004FCD
:1033B00008BF704731F000413FF4D5AF0B0C06BF9A
:1033C00009044FF0100C4FF0000C0B0E04BF090263
:1033D0000CF1080C0B0F04BF09010CF1040C8B0F4E
:1033E00004BF89000CF1020CCB0F04BF49000CF1A3
:1033F000010CCCF1200322FA03F341EA030102FAA3
:103400000CF2A0EB0C0000F10100704723F07F47A5
:1034100020F07F4C80EA030000F00040ACEB070393
:1034200003F57C5303F1FF032DE9804909B44FEA0A
:10343000144324EA03484FEA154B25EA0B4E0FF2DA
:10344000042606EB13273E7803FB0667C7F5000743
:1034500007FB06F64FEAD64606F102064FEA543756
:1034600007FB066CCCF1005C4FEA1C472CEA074CCA
:103470000CFB06F507FB06F404EB15464FEA96161F
:1034800049085FEA320234BF00204FF000404FEAA3
:10349000D13706FB07FC4FEA1C4C0CFB0BF7D21B89
:1034A00003FB0CF761EB07010CFB0EF7B0EB0740D9
:1034B00072EB17420CFB08F734BFA2EB0742B2EBEA
:1034C000074261EB17414FEA0C444FEA910706FBB4
:1034D00007FC4FEA1C4C0CFB0BF7B0EBC74072EB40
:1034E000573203FB0CF734BFA2EBC742B2EBC74223
:1034F00061EB57310CFB0EF7B0EBC70072EB577264
:103500000CFB08F734BFA2EBC702B2EBC70261EBBA
:1035100057714FEA816141EA92114FEA826242EAB1
:1035200090124FEA806004EBCC04039F4FEAD1373E
:1035300006FB07FC4FEA1C4C0CFB0BF7D21B03FBF2
:103540000CF761EB07010CFB0EF7B0EB074072EBD9
:1035500017420CFB08F734BFA2EB0742B2EB07425D
:1035600061EB17414FEA8C5504EB9C244FEA91071D
:1035700006FB07FC4FEA1C4C0CFB0BF7B0EBC740FB
:1035800072EB573203FB0CF734BFA2EBC742B2EB2E
:10359000C74261EB57310CFB0EF7B0EBC70072EB83
:1035A00057720CFB08F734BFA2EBC702B2EBC7029D
:1035B00061EB57714FEA816141EA92114FEA8262F1
:1035C00042EA90124FEA806015EB4C2544F100046A
:1035D0004FEAD13706FB07FC4FEA1C4C0CFB0BF7FC
:1035E000D21B03FB0CF761EB07010CFB0EF7B0EBF2
:1035F000074072EB17420CFB08F734BFA2EB0742FF
:10360000B2EB074261EB17414FEA813141EA924147
:103610004FEA823242EA90424FEA80304FEA0C761B
:1036200015EB1C1544F1000448EA03434EEA0B482D
:103630004FF0000EB2EB080C71EB030724BF62469B
:1036400039464EEB0E0E4FF0000B00185241494127
:103650004BEB0B0BB2EB080C71EB03077BF1000B90
:1036600024BF624639464EEB0E0E4FF0000B001899
:10367000524149414BEB0B0BB2EB080C71EB0307CA
:103680007BF1000B24BF624639464EEB0E0E51EA29
:10369000020718BF46F0010616EB0E7655F1000240
:1036A00054F1000103D5BDE88901BDE80088BDE8FB
:1036B0008901BDE80048B619524141EB0101A3F16F
:1036C0000103704780807F7E7D7C7B7A7978777676
:1036D00076757473727171706F6E6E6D6C6C6B6AEF
:1036E0006A6968686766666564646363626161608D
:1036F000605F5F5E5E5D5D5C5C5B5B5A5A5959580A
:103700005857575656555555545453535252525173
:10371000515050504F4F4F4E4E4D4D4D4C4C4C4BC9
:103720004B4B4A4A4A494949484848474747474610
:10373000464645454544444444434343434242424C
:10374000424141419C46002B30D477002BD04FEAB8
:1037500037071CB503B44FF010004FF01001BAF159
:10376000000F06D0BCF1000FDCBF40F0080040F0B5
:1037700008014FF000000FBCBDE810400BF1010B39
:10378000BBF1010F08BF5FEA170722BF12F1010268
:1037900011F101014FF0004143F1000300F000403E
:1037A00043EA00007047F9D35708D0E746EA0646D7
:1037B0004FEA164613F1400F1FDD13F1200FDFBF54
:1037C00016430A46002120335B42BED0C3F12007D6
:1037D00046EA06464FEA164602FA07F746EA0706A1
:1037E00022FA03F2C3F1200701FA07F742EA0702BF
:1037F00021FA03F14FF00003A7E746EA020646EA82
:1038000006464FEA164646EA0106BCBF46EA0646A9
:10381000360C4FF000034FF000024FF0000194E728
:103820002DE9804C70B49A46934691E8380007C859
:1038300031EA400C48BF34EA430C03D5FFF7E6FDFC
:10384000FFF780FFF0BCBDE8008C2DE9804C70B420
:103850009A46934691E8380007C810F0804F08BF99
:1038600013F0804F03D100F005F8FFF76BFFF0BCB9
:10387000BDE8008C20F07F4723F07F4C80EA0300F6
:1038800000F0004007EB0C03A3F57C53A3F1FE030B
:1038900092F0000F00F0B38095F0000F00F07780F9
:1038A0002DE901494FEA114021EA00484FEA144648
:1038B00024EA064700FB06FC08FB06F607FB08F8AF
:1038C00018EB06484CEB164C00FB07F718EB0748C3
:1038D0004CEB17404FEA124B22EA0B4E4FEA1546CB
:1038E00025EA06470BFB06FC0EFB06F607FB0EFE61
:1038F0001EEB064E4CEB164C0BFB07F71EEB074E70
:103900004CEB174B18EB0B0840F1000018EB0E0BBB
:1039100058EB000840F100008F1A4FF000014FF003
:1039200000063CBFC943661B14BFB5EB040C002165
:103930003CBFC943F61B4FEA174427EA04454FEA48
:103940001C472CEA074C04FB076205FB07F70CFB3E
:1039500005F616EB074642EB174204FB0CFC16EB90
:103960000C4642EB1C421BEB060658EB020241419F
:103970004EEA8E0E46EA9E0601D5BDE80189B619CB
:10398000524141EB0101A3F10103BDE801894FEA76
:10399000144524EA05464FEA114721EA074C05FB86
:1039A00007F406FB07F70CFB06F111EB074144EBAC
:1039B000174405FB0CFC11EB0C4144EB1C444FEA93
:1039C000124722EA074C05FB07F206FB07F70CFB40
:1039D00006F616EB074642EB174205FB0CFC16EB0E
:1039E0000C4642EB1C456A1854F1000148BF704771
:1039F000B619524141EB0101A3F10103704795F063
:103A0000000F37D04FEA114221EA02464FEA14472D
:103A100024EA074C02FB07F106FB07F70CFB06F450
:103A200014EB074441EB174102FB0CFC14EB0C4474
:103A300041EB1C414FEA154725EA074C02FB07F50D
:103A400006FB07F70CFB06F616EB074645EB17459A
:103A500002FB0CFC16EB0C4645EB1C42121951F113
:103A6000000148BF7047B619524141EB0101A3F173
:103A7000010370474FEA144524EA05464FEA11470F
:103A800021EA074C05FB07F106FB07F70CFB06F2E2
:103A900012EB074241EB174105FB0CFC12EB0C4209
:103AA00051EB1C414FF0000648BF7047921841EBA4
:103AB0000101A3F101037047490050EAC12018BF7A
:103AC00004204A0D18BF40F0010040F2FF72B2EB33
:103AD000515F08BF40F00200012808BF0520704771
:103AE00030380A2801D201207047002070470000BA
:103AF00010B500290AD00878002807D00548784476
:103B0000FDF712FC002801D0002010BD02487844C7
:103B100010BD0000820200007A02000010B50029EA
:103B20000AD00878002807D005487844FDF7FCFB48
:103B3000002801D0002010BD0248784410BD0000CC
:103B4000720200006A020000FCF7F8BFFDF72CB912
:103B500000000000000000003031323334353637C9
:103B600038394142434445464030580030313233C1
:103B700034353637383961626364656640307800C1
:103B80000400000800000000000000020001000026
:103B90001030313233343536373839616263646519
:103BA0006678700030313233343536373839414237
:103BB000434445465850000002400000000000A069
:103BC0000000000005400000000000C800000000E8
:103BD0000C4000000000409C000000001940000064
:103BE0000020BCBE0000000034400000BFC91B8E96
:103BF00000000004B5400000504BCFD06607E2CF74
:103C0000010000006C4100003E8251AADFEEA734A3
:103C100001000000D9420000DCB5A0E23A301F9755
:103C2000FFFFFFFFB4450000FD25A0C8E9A3C14F79
:103C3000FFFFFFFFFF3F00000000008000000000CA
:103C4000FF3F0000000000800000000000000000B6
:103C5000000000000102030406070809000000003C
:103C600001020304010202030405060708090A0B06
:103C70000C0D0E0F10104352432056657269666397
:103C80006174696F6E2050617373736564200D0AEF
:103C900000556E6B6E6F776E20636F6D6D616E6435
:103CA00020726561636865642021210D0A0043422A
:103CB0004C5F464C4153485F45524153455F434D2D
:103CC0004420726561636865642E0D0A0043424CAE
:103CD0005F4745545F5645525F434D4420726561CE
:103CE000636865642E0D0A0043424C5F4745545F8C
:103CF0005244505F5354415455535F434D442072D6
:103D00006561636865642E0D0A0043424C5F454E51
:103D10005F525F575F50524F544543545F434D4489
:103D200020726561636865642E0D0A00435243206A
:103D30005665726966636174696F6E204661696C6D
:103D400065640D0A004352432056657269666361DB
:103D500074696F6E206661696C65640D0A0000000D
:103D6000B03E0008000000204000000028010008CC
:103D7000F03E000840000020E80700004401000871
:103D80001C00000043000000F8FFFFFF0C000000D3
:103D90000E0000000F0000002E00000010010000C7
:103DA00043000000F8FFFFFF00404040404040401B
:103DB00040404141414141404040404040404040FE
:103DC00040404040404040404005020202020202A2
:103DD00002020202020202020220202020202020F1
:103DE0002020200202020202020290909090909005
:103DF00010101010101010101010101010101010C3
:103E00001010101002020202020288888888888836
:103E10000808080808080808080808080808080822
:103E2000080808080202020240000000000000002A
:103E30000000000000000000000000000000000082
:103E40000000000000000000000000000000000072
:103E50000000000000000000000000000000000062
:103E60000000000000000000000000000000000052
:103E70000000000000000000000000000000000042
:103E80000000000000000000000000000000000032
:103E90000000000000000000000000000000000022
:103EA0000000000000000000000000000000000012
:103EB0004920616D2046696E6525640D0A00492020
:103EC000616D20526F6D616E7920536F6268792544
:103ED000640D0A0001000000100000001011121310
:103EE00014151617181920210024F40000000000F2
:04000005080000ED02
:00000001FF
